:0400000008EF11F004
:1000080000C017F001C016F002C015F0D9CF1CF0DF
:10001800DACF1DF0E1CF1AF0E2CF1BF0E9CF18F0EC
:10002800EACF19F09EAA02D003EC10F017C000F036
:1000380016C001F015C002F018C0E9FF19C0EAFFA8
:100048001AC0E1FF1BC0E2FF1CC0D9FF1DC0DAFFC8
:02005800110095
:0E005A00030140B102D0899801D089881200BC
:0E006800030140B102D08D9201D08D821200B2
:0E007600030140B102D08B9601D08B861200A0
:0E008400030140B102D08B9601D08B86120092
:0E009200030140B102D08B9801D08B88120080
:0E00A000030140B102D0899201D08982120082
:0E00AE00030140B102D08A9201D08A82120072
:0E00BC00030140B102D08B9E01D08B8E12004A
:0E00CA00030140B102D08B9C01D08B8C120040
:0E00D800030140B102D08B9801D08B8812003A
:0E00E600030140B102D08B9A01D08B8A120028
:0E00F400030140B102D08B9401D08B84120026
:0E010200030140B102D08B9001D08B8012001F
:0E011000030140B102D08D9001D08D8012000D
:0E011E00030140B102D08B9601D08B861200F7
:0E012C00ACB202D00000FCD740C3ADFF120001
:10013A000F0121B302D00000FBD740C31CFF1200FD
:0E014A00030140B102D0899001D089801200DB
:0E015800030140B102D08A9001D08A801200CB
:0E016600030140B102D08B9E01D08B8E12009F
:0E017400030140B102D08B9C01D08B8C120095
:0E018200030140B102D08B9801D08B8812008F
:0E019000030140B102D08B9A01D08B8A12007D
:0E019E00030140B102D08B9201D08B8212007F
:0E01AC00030140B102D08A9401D08A8412006F
:0E01BA00030140B102D08F9001D08F8012005F
:0E01C800030140B102D08B9A01D08B8A120045
:0E01D600030140B102D08F9401D08F8412003B
:0E01E400030140B102D08B9801D08B8812002D
:0E01F200030140B102D08B9601D08B86120023
:0E020000030140B102D08F9201D08F82120014
:0E020E00030140B102D0899401D0898412000E
:0E021C00030140B102D08B9801D08B881200F4
:0E022A00030140B102D08B9601D08B861200EA
:0E023800030140B102D08D9601D08D861200D8
:0E024600030140B102D08B9801D08B881200CA
:0E025400030140B102D08B9601D08B861200C0
:0E026200030140B102D08D9401D08D841200B2
:10027000086A096A100E0C6E0134083609360450FB
:10028000085E0550D8A0053C095ED8B007D00450E0
:1002900008260550D8B0053C0926D890003601360E
:0602A0000C2EEAD712004B
:1002A600F250026EF29E0500FF6A0150FE6E00508B
:0802B600FD6E02BEF28E120083
:1002BE00220E0C6E086A096A0A6A0B6A0C06D8B41A
:1002CE001FD0D8900B320A32093208320332023272
:1002DE0001320032D8A0F2D70C06D8B409D004509F
:1002EE0008260550092206500A2207500B22EAD78B
:1002FE00045008260550092206500A2207500B22E8
:02030E001200DB
:1003100003013D6B050E3D5D0AE23D513B25E16E5B
:10032000000E3C21E26E200EE66E3D2BF3D73D51D0
:100330003B25E16E000E3C21E26EE66A3D073D5131
:100340003B253E6F000E3C213F6F0A0E046E000EEF
:10035000056E39C300F03AC301F08ADF08C000F02F
:1003600009C001F0300E00263EC3E1FF3FC3E2FFAB
:1003700000C0E6FF0A0E046E000E056E39C300F0E1
:100380003AC301F075DF00C039F301C03AF3000E43
:10039000011802E1000E001801E102D03D07CFD79D
:0203A000120049
:1003A2000B6A0A6A096A086A0E6A0334083604503C
:1003B200085E0550D8A0053C095E0650D8A0063C50
:1003C2000A5E0750D8A0073C0B5EE86AD8A0010E6F
:1003D2000E5E0336070E0C6E0334083609360A36F3
:1003E2000B360E36045003A012D0085E0550D8A07A
:1003F200053C095E0650D8A0063C0A5E0750D8A00C
:10040200073C0B5EE86AD8A0010E0E5E11D00826EA
:100412000550D8B0053C09260650D8B0063C0A263D
:100422000750D8B0073C0B26E86AD8B0010E0E265A
:1004320003360C2ED1D70234083609360A360B366B
:100442000E36045003A012D0085E0550D8A0053C19
:10045200095E0650D8A0063C0A5E0750D8A0073CA9
:100462000B5EE86AD8A0010E0E5E11D00826055078
:10047200D8B0053C09260650D8B0063C0A260750DB
:10048200D8B0073C0B26E86AD8B0010E0E26023619
:10049200070E0C6E0234083609360A360B360E3653
:1004A200045002A012D0085E0550D8A0053C095E97
:1004B2000650D8A0063C0A5E0750D8A0073C0B5E47
:1004C200E86AD8A0010E0E5E11D008260550D8B0F9
:1004D200053C09260650D8B0063C0A260750D8B07B
:1004E200073C0B26E86AD8B0010E0E2602360C2E07
:1004F200D1D70134083609360A360B360E36045087
:1005020002A012D0085E0550D8A0053C095E065034
:10051200D8A0063C0A5E0750D8A0073C0B5EE86AEA
:10052200D8A0010E0E5E11D008260550D8B0053CA9
:1005320009260650D8B0063C0A260750D8B0073C18
:100542000B26E86AD8B0010E0E260136070E0C6E95
:100552000134083609360A360B360E36045001A02D
:1005620012D0085E0550D8A0053C095E0650D8A0FE
:10057200063C0A5E0750D8A0073C0B5EE86AD8A08A
:10058200010E0E5E11D008260550D8B0053C092692
:100592000650D8B0063C0A260750D8B0073C0B26B6
:1005A200E86AD8B0010E0E2601360C2ED1D70034DF
:1005B200083609360A360B360E36045001A012D020
:1005C200085E0550D8A0053C095E0650D8A0063C3E
:1005D2000A5E0750D8A0073C0B5EE86AD8A0010E5D
:1005E2000E5E11D008260550D8B0053C09260650EB
:1005F200D8B0063C0A260750D8B0073C0B26E86A5A
:10060200D8B0010E0E260036070E0C6E00340836E6
:1006120009360A360B360E36045000A012D0085E98
:100622000550D8A0053C095E0650D8A0063C0A5EDB
:100632000750D8A0073C0B5EE86AD8A0010E0E5EF8
:1006420011D008260550D8B0053C09260650D8B06E
:10065200063C0A260750D8B0073C0B26E86AD8B0F9
:10066200010E0E2600360C2ED1D700B00ED004504B
:1006720008260550D8B0053C09260650D8B0063CDD
:0C0682000A260750D8B0073C0B261200D7
:10068E00086A080E0C6E003408360450085ED8B0A6
:0E069E0002D00826D89000360C2EF5D7120098
:1006AC00E9C1E1FFEAC1E2FF39C3E9FF3AC3EAFF5E
:1006BC00EECFE6FFE7C100F0E8C101F0EEDD006A25
:0206CC0012001A
:1006CE00000E006EFA0E016E000E026E036E120028
:1006DE0003013907390739C301F039070150000802
:1006EE0003E200000000F7D7000000000000000049
:0406FE0000001200E6
:0A070200000E82B8010E006E120016
:0A070C00000E82BA010E006E12000A
:0A071600000E84B0010E006E120008
:0A072000000E82B6010E006E1200FA
:0A072A00000E82B2010E006E1200F4
:0A073400000E82BC010E006E1200E0
:0A073E00000E82B6010E006E1200DC
:0A074800000E81B0010E006E1200D9
:0A075200000E82BE010E006E1200C0
:0A075C00000E9EBA010E006E12009E
:0A076600000EACB2010E006E12008E
:0A077000000E82BA010E006E1200A6
:10077A00AECF01F0ABA202D0AB98AB8801C000F0BB
:02078A0012005B
:10078C001DCF01F00F0122A302D02299228901C0B2
:04079C0000F0120057
:0A07A000000E80B0010E006E120082
:0A07AA00000E82B0010E006E120076
:0A07B400000EA4BA010E006E120040
:0C07BE00000E0F0121B3010E006E1200AE
:0A07CA00000E82B8010E006E12004E
:0A07D400000E80B4010E006E12004A
:0A07DE00000E84B6010E006E12003A
:0A07E800000E82B6010E006E120032
:0A07F200000E82B8010E006E120026
:0A07FC00000E86B4010E006E12001C
:0A080600000E86B0010E006E120015
:0A081000000E82B6010E006E120009
:0A081A00000E82B8010E006E1200FD
:0A082400000E84B4010E006E1200F5
:0A082E00000E84B2010E006E1200ED
:0A083800000E82B8010E006E1200DF
:0A084200000E80B2010E006E1200DD
:0A084C00000E80B8010E006E1200CD
:0A085600000E82BA010E006E1200BF
:0A086000000E82BE010E006E1200B1
:0A086A00000E82BC010E006E1200A9
:0A087400000E82B4010E006E1200A7
:0A087E00000E81B2010E006E1200A0
:100888000301336B346B2DC335F32EC336F3800E5F
:100898002E19006E800E005C02E1000E2D5D0BE249
:1008A800010E336F000E346F2D510008356F2EC3C3
:1008B80036F3000E365735C339F336C33AF32FC330
:1008C8003BF330C33CF320DD060E316F000E326F70
:1008D800000E006E3251005C02E13151000819E24D
:1008E80031512F25E16E32513021E26E010E315D1A
:1008F800006E000E3259016E00502F25E96E01502E
:100908003021EA6EEECFE6FF010E315F000E325B5A
:10091800DFD72FC3E1FF30C3E2FF200EE66E33516D
:1009280034111AE0316B326B31512F25E96E325197
:100938003021EA6EEE50200A03E1314B322BF4D716
:10094800010E315F000E325B31512F25E16E3251BD
:0A0958003021E26E2D0EE66E120053
:100962002DC330F32EC331F30D0E0301326F0A0E85
:10097200336F35D030C339F331C33AF396DE3AD010
:1009820030C3E9FF31C3EAFFEE5209E030C339F365
:1009920031C33AF38ADE0301304B312BF1D72AD02F
:1009A20030C3E9FF31C3EAFFEE5209E030C339F345
:1009B20031C33AF37ADE0301304B312BF1D7030115
:1009C200320E396F030E3A6F70DE330E0301396F48
:1009D200030E3A6F6ADE0ED0060E006E0CD00301D3
:1009E2002F51000AC7E02F51010ACAE02F51020A13
:0809F200D7E0F2D7006A120001
:0A09FA00000E82B6010E006E12001E
:100A04002C0E0101CD6F010ECE6F400ECF6F030E81
:100A1400D06F7A0ED16F070ED26F000ED36F000E17
:100A2400D46F5C0EC16F070EC26F000EC36F000E51
:100A3400C46F660EC56F070EC66F000EC76F000E3B
:100A4400C86FAC8A900EAB6E948E949C9EAA03D011
:080A5400AECF00F0FBD7120049
:100A5C003A0E0101CD6F010ECE6F400ECF6F030E1B
:100A6C00D06F8C0ED16F070ED26F000ED36F000EAD
:100A7C00D46FB40EC16F070EC26F000EC36F000EA1
:100A8C00C46FBE0EC56F070EC66F000EC76F000E8B
:100A9C00C86F0F01218B900E226F98849892A4AA94
:0A0AAC0003D01DCF00F0FBD71200AD
:100AB6000301336B346B000E345D02E10A0E335DC5
:100AC6000BE233513125E16E34513221E26E200EB4
:100AD600E66E334B342BEFD733513125E16E34516B
:100AE6003221E26EE66A010E335F000E345B33514B
:100AF6003125356F34513221366F0A0E046E000EE1
:100B0600056E066E076E2DC300F02EC301F02FC3CF
:100B160002F030C303F042DC08C000F009C001F067
:100B26000AC002F00BC003F0300E002635C3E1FF09
:100B360036C3E2FF00C0E6FF0A0E046E000E056E25
:100B4600066E076E2DC300F02EC301F02FC302F010
:100B560030C303F023DC00C02DF301C02EF302C026
:100B66002FF303C030F3000E046E031808E104509F
:100B7600021805E10450011802E10050000A01E1E3
:0E0B860005D0010E335F000E345BB1D71200B4
:100B94000301306B030E305D0AE230512E25E16E05
:100BA400000E2F21E26E200EE66E302BF3D730516B
:100BB4002E25E16E000E2F21E26EE66A30073051D9
:100BC4002E25316F000E2F21326F0A0E046E2DC3B5
:100BD40000F05BDD08C000F0300E002631C3E1FFF9
:100BE40032C3E2FF00C0E6FF0A0E046E2DC300F01C
:100BF4004CDD00C02DF30050000A01E102D03007A3
:040C0400DED7120025
:100C080062DDE80E046E030E056E000E066E076EBA
:100C18005FEC01F000C035F301C036F302C037F3D2
:100C280003C038F32DC304F02EC305F0000E066E82
:100C3800076ED1EC01F000C035F301C036F302C0F5
:100C480037F303C038F300C005F001C006F002C056
:100C580007F003C008F00832073206320532089E52
:100C68000832073206320532089E05C000F006C079
:100C780001F007C002F008C003F00332023201326B
:100C88000032039E00C031F301C032F31CDD2FC3D4
:100C980004F030C305F0000E066E076E5FEC01F03D
:100CA80031C309F032C30AF0000E0B6E0C6E030E4E
:100CB800086E09C004F00AC005F00BC006F00CC0AD
:100CC80007F0085007E00436049005360636073664
:100CD800FF0FF8D7D1EC01F000C035F301C036F3AF
:100CE80002C037F303C038F30A0E046E000E056E17
:100CF80031C300F032C301F038EC01F000C031F329
:100D080001C032F3000E015C02E1030E005C01E257
:100D180047D0D9C1E9FFDAC1EAFF03013851000819
:100D280008E13751000805E13651000802E1355164
:100D3800000833E20101C051EF12030132530DE004
:100D4800336B346B000E345D02E13251335D05E2E2
:100D5800396BC1DC334B342BF5D731C339F3BBDCEA
:100D68000101EB51EF16030132530DE0336B346B85
:100D7800000E345D02E13251335D05E2396BABDCC4
:100D8800334B342BF5D731C339F3A5DC010E355F6E
:100D9800000E365B375B385BC0D70101EB51EF16AD
:020DA800120037
:0A0DAA00000E82B6010E006E12006A
:0A0DB400000E82B8010E006E12005E
:0A0DBE00000E81B4010E006E120059
:0A0DC800000E86B2010E006E12004C
:100DD200090E0B6E1E0E0C6EE40E0D6E0D2EFED75E
:0C0DE2000C2EFCD70B2EFAD700001200DC
:100DEE0059D00201FAB102D0929201D092820F0133
:100DFE00259376D00201FAB102D0929801D0928852
:100E0E006FD00201FAB102D0969201D0968268D0CC
:100E1E000201FAB102D0949601D0948661D00201FB
:100E2E00FAB102D0949801D094885AD00201FAB146
:100E3E0002D0949A01D0948A53D00201FAB102D012
:100E4E00949401D094844CD00201FAB102D09392C2
:100E5E0001D0938245D00201FAB102D0949E01D006
:100E6E00948E3ED00201FAB102D0949C01D0948CA3
:100E7E0037D00201FAB102D0949601D0948630D0C8
:100E8E000201FAB102D0949801D0948829D0010EB3
:100E9E00006E28D00201F951000AA3E0F951010AAF
:100EAE00A9E0F951020AADE0F951030AB1E0F95196
:100EBE00040AB5E0F951050AB9E0F951060ABDE098
:100ECE00F951070AC1E0F951080AC5E0F951090ABA
:100EDE00C9E0F9510A0ACDE0F9510B0AD1E0D7D792
:060EEE00000E006E120070
:100EF40021D0CF0EAF6EAC9483DD6BD0670EAF6E96
:100F0400AC947EDD66D0CF0EAF6EAC8479DD61D05B
:100F1400670EAF6EAC8474DD5CD0440EAF6EAC84EF
:100F24006FDD57D0220EAF6EAC846ADD52D0060E50
:100F3400006E59D0000E006E0201FC1908E1005049
:100F4400FB1905E1120EFA1902E1F951C00AD1E0C8
:100F5400000E006EFC1908E10050FB1905E1250E96
:100F6400FA1902E1F951800AC9E0000E006EFC1979
:100F740008E10050FB1905E14B0EFA1902E1F951A1
:100F8400000AC1E0000E006EFC1908E10050FB19D4
:100F940005E1960EFA1902E1F951000AB9E0000ED2
:100FA400006EFC1908E10050FB1905E1E10EFA1985
:100FB40002E1F951000AB1E0FC51000A08E1FB51D9
:100FC400010A05E1FA51C20A02E1F951000AAAE054
:100FD400AED72C0E0101E76F010EE86F400EE96FEA
:080FE400030EEA6F006A12001F
:100FEC00F9C2F6FFFAC2F7FFFBC2F8FF0900F5CF12
:100FFC00DBF10900F5CFDCF10900F5CFDDF10900DB
:10100C00F5CFDEF1040E0201F925F66E000EFA2181
:10101C00F76E000EFB21F86E0900F5CFDFF1090029
:10102C00F5CFE0F10900F5CFE1F10900F5CFE2F1E0
:10103C00080EF925F66E000EFA21F76E000EFB2154
:10104C00F86E0900F5CFBAF00900F5CFBBF0090036
:0C105C00F5CFBCF00900F5CFBDF012008C
:10106800080E0201F925F66E000EFA21F76E000E41
:10107800FB21F86E0900F5CFD5F10900F5CFD6F1BF
:101088000900F5CFD7F10900F5CFD8F1040EF925FD
:10109800F66E000EFA21F76E000EFB21F86E0900BD
:1010A800F5CFC9F10900F5CFCAF10900F5CFCBF1A9
:0810B8000900F5CFCCF1120094
:1010C000F9C22DF3FAC22EF3FB0E03012F6F020EAD
:1010D000306F44EC04F0FB0E2D6F020E2E6F010EEC
:1010E0002F6F3FDC7C0E03012D6F000E2E6F010E63
:1010F0002F6F37DCB4C02DF3B5C02EF3B6C02FF37D
:10110000B7C030F3FB0E0301316F020E326FD3DC38
:10111000FB0E2D6F020E2E6F020E2F6F22DC800E43
:101120000F0A006E800E0201FA19005C02E1F9510B
:10113000A0080AE2080E03012D6F020E2E6F190E91
:101140002F6F000E306F60DD0001B751FF0A08E11C
:10115000B651FF0A05E1B551FF0A02E1B451FF0A99
:1011600005E1B46BB56BB66BB76B06D0010EB42757
:10117000000EB523B623B723540E0C6E1C0E0D6E55
:0C1180000D2EFED70C2EFCD70000120034
:10118C000201F951020A23E13D0E03012D6F000EFD
:10119C002E6F010E2F6FB1EC04F0FAC22DF3FB0E83
:1011AC0003012E6F020E2F6FEFDCFB0E2D6F020E64
:1011BC002E6F010E2F6FB1EC04F0390E03012D6F61
:1011CC00000E2E6F020E2F6FB1EC04F026D0020130
:1011DC00F951030A22E11E0E03012D6F000E2E6F32
:1011EC00010E2F6FB1EC04F0FAC22DF3FB0E0301CC
:1011FC002E6F020E2F6FC8DCFB0E2D6F020E2E6FA2
:10120C00010E2F6FB1EC04F0740E03012D6F000E64
:0C121C002E6F020E2F6FB1EC04F01200D8
:1012280059D00201FAB102D0929001D092800F01F8
:10123800259176D00201FAB102D0949001D0948021
:101248006FD00201FAB102D0969001D0968068D092
:101258000201FAB102D0949601D0948661D00201BD
:10126800FAB102D0949801D094885AD00201FAB108
:1012780002D0949A01D0948A53D00201FAB102D0D4
:10128800949201D094824CD00201FAB102D093908A
:1012980001D0938045D00201FAB102D0949E01D0CA
:1012A800948E3ED00201FAB102D0949C01D0948C65
:1012B80037D00201FAB102D0949601D0948630D08A
:1012C8000201FAB102D0949801D0948829D0010E75
:1012D800006E28D00201F951000AA3E0F951010A71
:1012E800A9E0F951020AADE0F951030AB1E0F95158
:1012F800040AB5E0F951050AB9E0F951060ABDE05A
:10130800F951070AC1E0F951080AC5E0F951090A7B
:10131800C9E0F9510A0ACDE0F9510B0AD1E0D7D753
:06132800000E006E120031
:10132E005DD00201FAB102D0929401D092840F01E5
:10133E0025957AD00201FAB102D0969601D0968602
:10134E0073D00201FAB102D0969401D096846CD07B
:10135E000201FAB102D0949601D0948665D00201B2
:10136E00FAB102D0949801D094885ED00201FAB1FD
:10137E0002D0949A01D0948A57D00201FAB102D0C9
:10138E00989001D0988050D00201FAB102D0939477
:10139E0001D0938449D00201FAB102D0989401D0C1
:1013AE0098840F01239540D00201FAB102D0989291
:1013BE0001D098820F01239337D00201FAB102D0E7
:1013CE00949601D0948630D00201FAB102D094984E
:1013DE0001D0948829D0010E006E28D00201F95157
:1013EE00000A9FE0F951010AA5E0F951020AA9E0AD
:1013FE00F951030AADE0F951040AB1E0F951050AB9
:10140E00B5E0F951060AB9E0F951070ABDE0F95104
:10141E00080AC1E0F951090AC7E0F9510A0ACDE0FC
:0E142E00F9510B0AD1E0D7D7000E006E120064
:10143C00F9C2FCF2FAC2FDF2FBC2FEF227D0CF0ECB
:10144C00AF6EAC9402EC05F0DED0670EAF6EAC94D0
:10145C0002EC05F0D8D0CF0EAF6EAC8402EC05F0E8
:10146C00D2D0670EAF6EAC8402EC05F0CCD0440E3B
:10147C00AF6EAC8402EC05F0C6D0220EAF6EAC841D
:10148C0002EC05F0C0D0050E006EBFD0FCC2F6FF1A
:10149C00FDC2F7FFFEC2F8FF0900F5CF01F009000D
:1014AC00F5CF02F00900F5CF03F00900F5CF04F0F9
:1014BC00000E006E041808E10050031805E1120E2E
:1014CC00021802E10150C00ABAE0FCC2F6FFFDC2EC
:1014DC00F7FFFEC2F8FF0900F5CF01F00900F5CFC8
:1014EC0002F00900F5CF03F00900F5CF04F0000E6F
:1014FC00006E041808E10050031805E1250E0218CF
:10150C0002E10150800AA1E0FCC2F6FFFDC2F7FF28
:10151C00FEC2F8FF0900F5CF01F00900F5CF02F08B
:10152C000900F5CF03F00900F5CF04F0000E006EB2
:10153C00041808E10050031805E14B0E021802E1F3
:10154C000150000A88E0FCC2F6FFFDC2F7FFFEC2A4
:10155C00F8FF0900F5CF01F00900F5CF02F0090002
:10156C00F5CF03F00900F5CF04F0000E006E04185F
:10157C0008E10050031805E1960E021802E1015033
:10158C00000AD8B46ED7FCC2F6FFFDC2F7FFFEC24C
:10159C00F8FF0900F5CF01F00900F5CF02F00900C2
:1015AC00F5CF03F00900F5CF04F0000E006E04181F
:1015BC0008E10050031805E1E10E021802E10150A8
:1015CC00000AD8B454D7FCC2F6FFFDC2F7FFFEC226
:1015DC00F8FF0900F5CF01F00900F5CF02F0090082
:1015EC00F5CF03F00900F5CF04F00450000A08E130
:1015FC000350010A05E10250C20A02E10150000A3F
:0C160C00D8B43BD740D7000E006E12008F
:101618003ED00F0120870D0E1F6F040E1E6F21850F
:101628002EEC05F083D00F012087060E1F6F820E67
:101638001E6F21852EEC05F079D00F012087030E4F
:101648001F6F400E1E6F21852EEC05F06FD00F0125
:101658002087010E1F6FA00E1E6F21852EEC05F04E
:1016680065D00F012087010E1F6F150E1E6F218593
:101678002EEC05F05BD00F0120871F6B8A0E1E6FC2
:1016880021852EEC05F052D0060E006E59D0000EC2
:10169800006E0201FC1908E10050FB1905E1120E69
:1016A800FA1902E1F951C00AB4E0000E006EFC1903
:1016B80008E10050FB1905E1250EFA1902E1F9517C
:1016C800800AB1E0000E006EFC1908E10050FB1919
:1016D80005E14B0EFA1902E1F951000AAEE0000EDD
:1016E800006EFC1908E10050FB1905E1960EFA1985
:1016F80002E1F951000AABE0000E006EFC1908E1A6
:101708000050FB1905E1E10EFA1902E1F951000A4E
:10171800A8E0FC51000A08E1FB51010A05E1FA5171
:10172800C20A02E1F951000AA6E0AED73A0E010159
:10173800E76F010EE86F400EE96F030EEA6F006A6B
:0217480012008D
:10174A0027D0CF0EAF6EAC9402EC05F070D0670EC6
:10175A00AF6EAC9402EC05F06AD0CF0EAF6EAC84DB
:10176A0002EC05F064D0670EAF6EAC8402EC05F0B3
:10177A005ED0440EAF6EAC8402EC05F058D0220E57
:10178A00AF6EAC8402EC05F052D0060E006E59D052
:10179A00000E006E0201FC1908E10050FB1905E178
:1017AA00120EFA1902E1F951C00ACBE0000E006EDE
:1017BA00FC1908E10050FB1905E1250EFA1902E1AE
:1017CA00F951800AC4E0000E006EFC1908E10050CD
:1017DA00FB1905E14B0EFA1902E1F951000ABDE0C5
:1017EA00000E006EFC1908E10050FB1905E1960E87
:1017FA00FA1902E1F951000AB6E0000E006EFC196E
:10180A0008E10050FB1905E1E10EFA1902E1F9516C
:10181A00000AAFE0FC51000A08E1FB51010A05E1A8
:10182A00FA51C20A02E1F951000AA9E0AED72C0E18
:10183A000101E76F010EE86F400EE96F030EEA6FD0
:04184A00006A12001E
:10184E0048C3E9FF49C3EAFFEE50000A02E1010175
:10185E00ED6B0101BF0EE16E000EE26EED51E12661
:10186E00D8B0E22A42C3E9FF43C3EAFFEECFE6FF58
:10187E00ED51010F006E016A000E0122BF0E002411
:10188E00E16E000E0120E26E44C3E9FF45C3EAFF9C
:10189E00EECFE6FF026A44C3D9FF45C3DAFFDE503E
:1018AE00025C1CE20101020EED25006E016A000EC3
:1018BE00012202500026000E0122BF0E0024E16E0E
:1018CE00000E0120E26E025003014625E96E000E65
:1018DE004721EA6EEECFE6FF022ADDD744C3E9FFC9
:1018EE0045C3EAFF020EEE24006E00500101ED2703
:0E18FE0048C3E9FF49C3EAFFEECFBFF1120075
:10190C00F9C2FCF2FAC2FDF2FBC2FEF227D0CF0EF6
:10191C00AF6EAC9402EC05F0DED0670EAF6EAC94FB
:10192C0002EC05F0D8D0CF0EAF6EAC8402EC05F013
:10193C00D2D0670EAF6EAC8402EC05F0CCD0440E66
:10194C00AF6EAC8402EC05F0C6D0220EAF6EAC8448
:10195C0002EC05F0C0D0050E006EBFD0FCC2F6FF45
:10196C00FDC2F7FFFEC2F8FF0900F5CF01F0090038
:10197C00F5CF02F00900F5CF03F00900F5CF04F024
:10198C00000E006E041808E10050031805E1120E59
:10199C00021802E10150C00ABAE0FCC2F6FFFDC217
:1019AC00F7FFFEC2F8FF0900F5CF01F00900F5CFF3
:1019BC0002F00900F5CF03F00900F5CF04F0000E9A
:1019CC00006E041808E10050031805E1250E0218FA
:1019DC0002E10150800AA1E0FCC2F6FFFDC2F7FF54
:1019EC00FEC2F8FF0900F5CF01F00900F5CF02F0B7
:1019FC000900F5CF03F00900F5CF04F0000E006EDE
:101A0C00041808E10050031805E14B0E021802E11E
:101A1C000150000A88E0FCC2F6FFFDC2F7FFFEC2CF
:101A2C00F8FF0900F5CF01F00900F5CF02F009002D
:101A3C00F5CF03F00900F5CF04F0000E006E04188A
:101A4C0008E10050031805E1960E021802E101505E
:101A5C00000AD8B46ED7FCC2F6FFFDC2F7FFFEC277
:101A6C00F8FF0900F5CF01F00900F5CF02F00900ED
:101A7C00F5CF03F00900F5CF04F0000E006E04184A
:101A8C0008E10050031805E1E10E021802E10150D3
:101A9C00000AD8B454D7FCC2F6FFFDC2F7FFFEC251
:101AAC00F8FF0900F5CF01F00900F5CF02F00900AD
:101ABC00F5CF03F00900F5CF04F00450000A08E15B
:101ACC000350010A05E10250C20A02E10150000A6A
:0C1ADC00D8B43BD740D7000E006E1200BB
:061AE800050E006E120065
:101AEE0027D0CF0EAF6EAC9402EC05F070D0670E1F
:101AFE00AF6EAC9402EC05F06AD0CF0EAF6EAC8434
:101B0E0002EC05F064D0670EAF6EAC8402EC05F00B
:101B1E005ED0440EAF6EAC8402EC05F058D0220EAF
:101B2E00AF6EAC8402EC05F052D0060E006E59D0AA
:101B3E00000E006E0201FC1908E10050FB1905E1D0
:101B4E00120EFA1902E1F951C00ACBE0000E006E36
:101B5E00FC1908E10050FB1905E1250EFA1902E106
:101B6E00F951800AC4E0000E006EFC1908E1005025
:101B7E00FB1905E14B0EFA1902E1F951000ABDE01D
:101B8E00000E006EFC1908E10050FB1905E1960EDF
:101B9E00FA1902E1F951000AB6E0000E006EFC19C6
:101BAE0008E10050FB1905E1E10EFA1902E1F951C5
:101BBE00000AAFE0FC51000A08E1FB51010A05E101
:101BCE00FA51C20A02E1F951000AA9E0AED72C0E71
:101BDE000101E76F010EE86F400EE96F030EEA6F29
:041BEE00006A120077
:101BF2002CD0F4C2F9F2F5C2FAF2F6C2FBF2F7C245
:101C0200FCF27AEC07F02FD0F4C2F9F2F5C2FAF244
:101C1200F6C2FBF2F7C2FCF297DD25D0F4C2F9F26C
:101C2200F5C2FAF2F6C2FBF2F7C2FCF2F4DC1BD008
:101C3200F4C2F9F2F5C2FAF2F6C2FBF2F7C2FCF212
:101C420055DF11D0010E006E0ED00201F351000AD1
:101C5200D0E0F351010AD8E0F351020ADFE0F35178
:081C6200100AE6E0EFD71200C2
:101C6A0018D0F4C2F9F2F5C2FAF214EC09F01CD059
:101C7A00F4C2F9F2F5C2FAF2F7EC06F015D0F4C2A2
:101C8A00F9F2F5C2FAF297EC09F00ED0010E006EE5
:101C9A000BD00201F351000AE4E0F351010AE8E033
:0A1CAA00F351020AECE0F2D7120039
:101CB4000201F3530DE0D7C1E1FFD8C1E2FF010EE9
:101CC400E66ED5C100F0D6C101F053EC01F00BD0A3
:101CD400D7C1E1FFD8C1E2FFE66AD5C100F0D6C1A1
:081CE40001F053EC01F01200C5
:0E1CEC00DFC100F0E0C101F053EC01F0120086
:101CFA00F3C2D9F1F4C2DAF1F5C201F0010E006EB5
:101D0A00015004E000360090FF0FFBD700C0C0F17D
:101D1A00001E00C0EBF1120E0201F325E96E000E5F
:101D2A00F421EA6E0050EF16120EE95E0050EF162B
:021D3A00120095
:101D3C00F6C2F9F2F7C2FAF2F8C2FBF2F6EC07F0CF
:101D4C00F3C2F9F2F4C2FAF2F5C2FBF234EC08F089
:061D5C000001BE6B120045
:101D62000201F46BF36BF3510101BF5DD8A088D07F
:101D7200BF0EE96E000EEA6E0201F451E926D8B0F8
:101D8200EA2AEE50800A36E1020EF425006E016A5C
:101D9200000E0122BF0E0024E96E000E0120EA6E41
:101DA200EECFF5F2000EF66F000EF66FF5C203F0FD
:101DB200026A02C0F5F203C0F6F2030EF425006EC9
:101DC200016A000E0122BF0E0024D96E000E01200E
:101DD200DA6EDE500210006E03C001F0000E011236
:101DE20000C0F5F201C0F6F200C0F9F201C0FAF249
:101DF20060EC08F0BF0EE96E000EEA6E0201F451CB
:101E0200E926D8B0EA2AEE50020A0CE0BF0EE96ECB
:101E1200000EEA6EF451E926D8B0EA2AEE50030A1F
:101E220001E01AD0BF0EE96E000EEA6EF451E92607
:101E3200D8B0EA2AEECFF9F2020EF425006E016A5A
:101E4200000E0122BF0E0024E96E000E0120EA6E90
:101E5200EECFFAF2C6EC08F00201F451010F006E67
:101E6200016A000E0122BF0E0024E96E000E01205D
:101E7200EA6E020EEE24006E0050F427F32B73D7A5
:021E820012004C
:101E84000001BE5304E0BE6B010E006E01D0006A77
:021E940012003A
:101E96001CD0F4C2F9F2F5C2FAF2F6C2FBF21EEC5D
:101EA6000AF01ED0F4C2F9F2F5C2FAF2F6C2FBF25B
:101EB6002ADD16D0F4C2F9F2F5C2FAF2F6C2FBF246
:101EC60010DE0ED0010E006E0BD00201F351000A97
:101ED600E0E0F351010AE6E0F351020AEBE0F2D743
:021EE6001200E8
:101EE800F3C2E3F1F4C2E4F1F5C2E5F1F6C2E6F1BA
:021EF8001200D6
:101EFA00CBC1E1FFCCC1E2FFE66AC9C100F0CAC1A9
:101F0A0001F053EC01F0E9EC06F0E9EC06F0CBC184
:101F1A00E1FFCCC1E2FF010EE66EC9C100F0CAC101
:101F2A0001F053EC01F0E9EC06F0E9EC06F01200DE
:101F3A00A4DF00C0F2F20050010A01E10DDF120035
:101F4A00BA0E0201F36F220EF46F000EF56F1A0E2D
:101F5A00F66F230EF76F000EF86FEBDE4E0E0201DE
:101F6A00F36F180EF46F420EF56F030EF66FB7DFBC
:101F7A00190E0B6E5A0E0C6EB10E0D6E0D2EFED78B
:101F8A000C2EFCD70B2EFAD700000000B1DF010E91
:101F9A000201F36F8ADE810E0201F36F0F0EF46FF6
:101FAA00060EF56FA5DE110E0B6E3C0E0C6ECB0EF7
:101FBA000D6E0D2EFED70C2EFCD70B2EFAD79D8A4E
:101FCA009E9AF28CF28E7F0E03012D6F000E2E6FF9
:101FDA00020E2F6FB1EC04F07E0E03012D6F000E7E
:0C1FEA002E6F020E2F6FB1EC04F01200FD
:101FF6000900F5CFE6FF0006FBE10106F9E1120054
:1020060072DE00C041F30001B951000A07E1030185
:102016004151AA0A03E00001B96BBFD00001B951D2
:10202600010A07E103014151AA0A03E00001B96B65
:10203600B4D00001B951020A06E141C3EEF2B92B50
:10204600010EB86FAAD0B9510208D8B0A4D0030EB9
:10205600B95D016E026A000E025A800E0218006E09
:10206600800E005C03E10201EE51015CD8B07ED027
:1020760003014151550A09E1010E0001B86F030140
:1020860041510001B327B92B88D00001B851010A8C
:1020960027E141C3EFF2B86B030141510001B327B9
:1020A60003014151020A05E00201EF51030A01E072
:1020B60006D00201010EF06F0101EC6B0CD002019B
:1020C600EF51800A04E1010E0101EC6F04D000011A
:1020D600B96BB36B62D00201F16B0001B92B5DD015
:1020E6000101EC51010A09E141C3F0F2EC6B030175
:1020F60041510001B327B92B50D00201F051F15DD7
:1021060034E2EE0EE16E010EE26EF151E126D8B038
:10211600E22A41C3E6FFF12B030141510001B32737
:102126000201F151F0191EE1E5C1E1FFE6C1E2FF4E
:10213600EF0EE66E020EE66EF00EE66E020EE66E2E
:10214600EE0EE66E010EE66EB20EE66E000EE66E60
:10215600E3C100F0E4C101F053EC01F00001B22B41
:10216600010EB86F0001B92B18D015D00001B31DB0
:10217600016E01C0B3F001500301411904E1010EE3
:102186000001BE6F02D00001BE6BB36BB26BB96BC0
:0C2196000201F16B02D00001B92B120015
:1021A2000201F36B010EF46FF56B5EDD0201F36B5E
:1021B200020EF46FF56B58DD0201F36B260EF46F1D
:1021C200230EF56F000EF66F65DE020E0201F36F4D
:1021D200000EF46FE10EF56F000EF66FF76F08DD7B
:1021E2009A0E03012D6F000E2E6F020E2F6FB1ECAF
:1021F20004F0090E0B6E1E0E0C6EE40E0D6E0D2E0B
:0E220200FED70C2EFCD70B2EFAD700001200D0
:0E22100095EC11F0C6DF99DE90DEFED7FFD709
:10232A0010EE1EF09C0E006E010E016E1E0EF66E71
:0E233A00220EF76E000EF86EFBEC0FF0120094
:10221E002A2A205265616C2D74696D6520486561AE
:0B222E0072742052617465203A200099
:04223900202A2A002D
:10223D002A2A205369676E616C205175616C69742F
:10224D0079202830202D2073656E736F72206F6694
:10225D00662C20323030202D2073656E736F722006
:07226D006F6E29203A2000EA
:082274002042504D202A2A00EF
:02227C002C0034
:01227E00005F
:10227F002A2A20454347203420697320696E6974E8
:0B228F0069616C697A6564202A2A00EE
:10229A002A2A2A20496E697469616C697A696E67AB
:0822AA002E2E2E202A2A2A0004
:0122B200002B
:0122B300002A
:0422B4000000000026
:0122B8000025
:0122B9000024
:1022BA004A01400302014003100140031E0140038A
:1022CA0082014003900140039E01400358014003EC
:1022DA0066014003740140038400400392004003F6
:1022EA00A0070000AA070000160700002007000048
:1022FA00020700000C0700002A0700004807000038
:10230A0052070000340700003E070000CA07000019
:0C231A002C0140037A0700005C07000063
:0423260000E10000D2
:020000040030CA
:0E00000015137F7CF98B91FFFFC0FFE0FF40DE
:00000001FF
